:020000040800F2
:1000000000500020F90D0008650D0008670D00087C
:10001000690D00086B0D00086D0D00080000000060
:100020000000000000000000000000006F0D00084C
:10003000710D000800000000730D0008750D000828
:10004000410E0008410E0008410E0008410E000854
:10005000410E0008410E0008410E0008410E000844
:10006000410E0008410E0008410E0008410E000834
:10007000410E0008410E0008410E0008410E000824
:10008000410E0008410E0008410E0008410E000814
:10009000410E0008410E0008410E0008410E000804
:1000A000410E0008410E0008410E0008410E0008F4
:1000B000410E0008410E0008410E0008410E0008E4
:1000C000410E0008410E0008410E0008410E0008D4
:1000D000410E0008410E0008410E0008410E0008C4
:1000E000410E0008410E0008410E0008000000000B
:1000F0000000000000000000000000000000000000
:0C01000000000000000000005FF808F1A3
:10010C0010B5054C237833B9044B13B10448AFF345
:10011C0000800123237010BD70000020000000003F
:10012C001C17000808B5034B1BB103490348AFF378
:10013C00008008BD00000000740000201C1700089F
:10014C00034613F8012B002AFBD1181A013870470B
:10015C0038B50E4B054618784FF47A73B3FBF0F3B1
:10016C000B4A1068B0FBF3F000F080F8044658B965
:10017C000F2D09D8024629464FF0FF3000F042F807
:10018C00044B20461D6038BD012038BD0000002006
:10019C000800002004000020074A08B5136803205B
:1001AC0043F01003136000F01BF80020FFF7D0FFA2
:1001BC0000F074FD002008BD00200240034A044BEF
:1001CC0011681B780B441360704700BF9C00002023
:1001DC0000000020014B1868704700BF9C000020F5
:1001EC00074A0002D36800F4E06023F4E0631B04C8
:1001FC001B0C43F0BF6343F400330343D3607047DD
:10020C0000ED00E0174B30B5DC68C4F30224C4F1F8
:10021C000703251D042B28BF0423062D4FF00105D1
:10022C0098BF002405FA03F303F1FF3388BF033CA6
:10023C001940A14005FA04F4013C2240002842EA8E
:10024C0001024FEA0212A9BF00F16040064BD2B284
:10025C0000F56140BBBF00F00F00D2B280F8002364
:10026C001A5430BD00ED00E014ED00E00138B0F19F
:10027C00807F0AD2F021064B064A586082F8231080
:10028C000020072298601A6070470120704700BF59
:10029C0010E000E000ED00E02DE9F74F00242646C9
:1002AC00664BDFF8A8E1DFF8A8C10A6832FA06F558
:1002BC0002D103B0BDE8F08F4FF0010808FA06F840
:1002CC0002EA080290457FD14D68122D00F0AA80F9
:1002DC0000F28380022D00F0A28077D8002D00F070
:1002EC008980012D00F099804FF00F09FF2A93BFF0
:1002FC00824606F18045083DD0F800B092BFB500AB
:10030C00D0F804B0AD0009FA05F82BEA080804FA95
:10031C0005F588BF00F1040A48EA0505CAF8005043
:10032C00D1F804A01AF0805F4ED0454D444FAD6912
:10033C0026F0030845F00105BD61BD6908F1804850
:10034C0005F00105019508F5803806F0030B019DB9
:10035C004FEA8B0BD8F8085009FA0BF925EA090972
:10036C00384DA84263D005F58065A84261D005F5EB
:10037C008065A8425FD005F58065A8420CBF0325B7
:10038C00042505FA0BF545EA0905C8F808501D685F
:10039C001AF4803F14BF154395431D605D681AF431
:1003AC00003F14BF154395435D609D681AF4801F90
:1003BC0014BF154395439D60DD681AF4001F14BFEC
:1003CC002A4325EA0202DA6001366EE7032D22D0B9
:1003DC00112D89D1CC68043486E71B4FBD4209D05E
:1003EC0012D8DFF870904D4504D009F580394D4591
:1003FC007FF47AAF8C68C4B1012C0CBFC0F81080AC
:10040C00C0F8148008246FE77545F3D06545F1D02A
:10041C00DFF84490EBE7002466E7CC6864E7CC682F
:10042C00083461E7CC680C345EE704245CE70025F3
:10043C00A7E70125A5E70225A3E700BF00040140BB
:10044C000010024000080140000021100000311093
:10045C000000321000001110000022100AB10161DE
:10046C0070470904FBE700002DE9F341054608B984
:10047C0001203CE00368DB0710D42B689F075DD498
:10048C002B68190700F194802B685A0700F1BE8085
:10049C00E869002840F02C81002028E08F4C63682C
:1004AC0003F00C03042B07D0636803F00C03082B38
:1004BC0009D16368DE0306D523689C03DDD56B6820
:1004CC00002BDAD1D4E76B68B3F5803F12D12368E7
:1004DC0043F480332360FFF77DFE064623689803C0
:1004EC00CBD4FFF777FE801B6428F7D9032002B02A
:1004FC00BDE8F0819BB9236823F480332360236823
:10050C0023F480232360FFF765FE064623689903D6
:10051C00B3D5FFF75FFE801B6428F7D9E6E7B3F588
:10052C00A02F236803D143F480232360CFE723F467
:10053C0080332360236823F48023CBE7674C636804
:10054C0013F00C0F07D0636803F00C03082B10D1C9
:10055C006368DA030DD423689B0702D52B69012B42
:10056C0086D123686A6923F0F80343EAC203236047
:10057C0086E72A695A4B6AB101221A60FFF72AFEF4
:10058C00064623689F07ECD4FFF724FE801B022845
:10059C00F7D9ABE71A60FFF71DFE064623689807EC
:1005AC007FF56EAFFFF716FE801B0228F6D99DE78C
:1005BC00AA694A4C4B4BDAB101221A60FFF70AFECA
:1005CC000646636A9B070DD54FF4FA52464B1B68DF
:1005DC00B3FBF2F3019300BF019B5A1E0192002B57
:1005EC00F9D151E7FFF7F6FD801B0228E9D97DE729
:1005FC001A60FFF7EFFD0646636A9F077FF544AF6D
:10060C00FFF7E8FD801B0228F6D96FE7334CE3694E
:10061C00D80024D40127E36943F08053E361E369F4
:10062C0003F080530093009B304E3368D90518D5E6
:10063C00EB68012B26D1236A43F001032362FFF7F9
:10064C00C9FD41F288368046236A9B073FD5002FAF
:10065C003FF41EAFE36923F08053E36118E70027F2
:10066C00E2E7336843F480733360FFF7B3FD8046F1
:10067C003368DA05DCD4FFF7ADFDA0EB0800642885
:10068C00F6D933E7ABB9236A41F2883823F001037A
:10069C002362236A23F004032362FFF79BFD0646C3
:1006AC00236A9807D3D5FFF795FD801B4045F7D9F2
:1006BC001CE7052B236A03D143F004032362BAE73A
:1006CC0023F001032362236A23F00403B6E7FFF748
:1006DC0081FDA0EB0800B042B6D907E7001002403C
:1006EC00000042428004424208000020007000409A
:1006FC002A4B5A681C4602F00C02082A3DD00023F3
:10070C00274E022833602BD1FFF764FD0746236880
:10071C0099011FD42B6AB3F5803F05D16268A96893
:10072C0022F400320A436260696A62680B4322F465
:10073C0074121343636001233360FFF74BFD0546CE
:10074C0023689A013FF5A8AEFFF744FD401B022831
:10075C00F6D9CBE6FFF73EFDC01B0228D7D9C5E67C
:10076C00FFF738FD054623689B017FF595AEFFF733
:10077C0031FD401B0228F6D9B8E601283FF4B7AE8C
:10078C0058682B6A00F480329A427FF471AE6B6A1F
:10079C0000F47010C01A18BF0120A8E60010024027
:1007AC006000424230B5194B87B002AC03F1100522
:1007BC00224618685968083303C2AB421446F7D175
:1007CC0001238DF80430022311498DF805304B6854
:1007DC0003F00C02082A17D1C3F3834206A8024483
:1007EC00DB0312F8102C0CD54B680A48C3F34043BA
:1007FC00504306AA134413F8143CB0FBF3F007B0B3
:10080C0030BD05485043FAE70248F8E734170008B2
:10081C000010024000127A0000093D002DE9F04161
:10082C000D46044610B90120BDE8F081454A136815
:10083C0003F007038B4229D321688E0731D4CA07F2
:10084C0044D4404A136803F007039D4267D32268DF
:10085C003D4D12F0040F6ED1130706D56B6822695B
:10086C0023F4605343EAC2036B60FFF79BFF6B6892
:10087C00364AC3F30313D35CD840354B1860354B61
:10088C001868FFF765FC0020BDE8F081136823F0C1
:10089C0007030B431360136803F007039942C2D19B
:1008AC00CAE7294B11F0040F1EBF5A6842F4E062EC
:1008BC005A60080742BF5A6842F460525A605A683C
:1008CC00A06822F0F00202435A60B8E762681E4E3C
:1008DC00012A33681BD113F4003FA4D0736841F292
:1008EC00883823F0030313437360FFF773FC074648
:1008FC007368626803F00C03B3EB820FA1D0FFF7AF
:10090C0069FCC01B4045F3D90320BDE8F081022AE5
:10091C0002D113F0007FE0E713F0020FDDE713685C
:10092C0023F007032B431360136803F007039D4266
:10093C007FF479AF8BE76B68E16823F4E0630B43DA
:10094C006B6089E700200240001002404B17000842
:10095C000800002004000020044B054A5B68C3F328
:10096C000223D35C034A1068D84070470010024041
:10097C005B17000808000020044B054A5B68C3F3B2
:10098C00C223D35C034A1068D84070470010024061
:10099C005B1700080800002038B505460368C168DD
:1009AC001A69192422F440520A431A6182680069B8
:1009BC00D9680243686921F4B05121F00C0102435B
:1009CC000A43DA605A69A96922F440720A435A61EF
:1009DC000D4A934214D1FFF7CFFF60436C68642239
:1009EC00A400B0FBF4F0B0FBF2F402FB14031B0107
:1009FC003233B3FBF2F3296803EB04138B6038BD7D
:100A0C00FFF7AAFFE9E700BF00380140F8B504463C
:100A1C000E4617461D4621680B6836EA030301D1C2
:100A2C000020F8BD6B1CF7D095B923680320DA6859
:100A3C0022F4D072DA605A6922F001025A61202342
:100A4C0084F8393084F83A30002384F83830F8BD13
:100A5C00FFF7C0FBC01B8542DDD2E6E710B50446AC
:100A6C0040B390F8393003F0FF021BB980F83820FE
:100A7C0000F036F92423226884F83930D3682046F4
:100A8C0023F40053D360FFF787FF236800201A6913
:100A9C0022F490421A615A6922F02A025A61DA68E9
:100AAC0042F40052DA602023E06384F8393084F891
:100ABC003A3010BD012010BD2DE9F0411F4690F8D1
:100ACC0039300446202B0D4690464ED1002949D092
:100ADC00002A47D090F83830012B46D0012380F8FB
:100AEC0038300023C363212380F83930FFF772FBC1
:100AFC000646A4F82480A4F82680E38C9BB26BB93C
:100B0C003B46324640212046FFF780FFA8B9202300
:100B1C0084F8380084F83930BDE8F081E38C324633
:100B2C00013B9BB2E384A3688021B3F5805F204630
:100B3C003B460ED1FFF76AFF10B10320BDE8F081F0
:100B4C002B882268C3F308035360236943B9023529
:100B5C00D3E7FFF75BFF0028EFD123682A785A60B0
:100B6C000135CAE70120BDE8F0810220BDE8F08123
:100B7C00C821044A1368184490FBF1F301FB1300DD
:100B8C00106070478C00002000B591B02822002125
:100B9C0006A800F07BF91422002101A800F076F9D8
:100BAC000223069301230A93102306A80B93FFF745
:100BBC005BFC00210F2301A8019302910391049186
:100BCC000591FFF72BFE11B05DF804FB00B589B061
:100BDC00FFF7E2FAFFF7D8FF1022002103A800F07C
:100BEC0055F9274B4FF400519A69264842F01002F0
:100BFC009A619A69002402F010020192019A9A6992
:100C0C00214E42F004029A619B69002203F0040316
:100C1C000293029BFFF722FC4FF400530393012332
:100C2C000493022303A9174805940693FFF734FB9A
:100C3C004FF416531548164A846080E80C000C23B8
:100C4C00C46004618461C4614361FFF707FF114D07
:100C5C00114C0120FFF78CFF3268294603A800F0E5
:100C6C001DF9214603A800F03DF903A8FFF768FA27
:100C7C004FF0FF3382B203A90448FFF71DFFE8E7EA
:100C8C0000100240001001408C000020A000002049
:100C9C000038014048170008441700080E4B82B07A
:100CAC009A6942F001029A619A6902F0010200927B
:100CBC00009ADA6942F08052DA61DB69074A03F084
:100CCC0080530193019B536823F0E06343F000735E
:100CDC00536002B0704700BF00100240000001409A
:100CEC0010B5044686B01022002102A800F0CEF800
:100CFC002268174B9A4228D103F558439A6902A9E6
:100D0C0042F480429A619A69124802F4804200923D
:100D1C00009A9A6942F004029A619B6903F00403F9
:100D2C000193019B4FF4007302930223039303235B
:100D3C000593FFF7B1FA4FF480630293002302A9E5
:100D4C00044803930493FFF7A7FA06B010BD00BF45
:100D5C0000380140000801407047FEE7FEE7FEE75F
:100D6C00FEE7704770477047FFF728BA08B50A4B83
:100D7C000246196809B9094919606946186802449C
:100D8C008A4206D900F058F80C2303604FF0FF306C
:100D9C0008BD1A6008BD00BF90000020E4000020D0
:100DAC000F4B1A6842F001021A6059680D4A0A404A
:100DBC005A601A6822F0847222F480321A601A681F
:100DCC0022F480221A605A6822F4FE025A604FF410
:100DDC001F029A604FF00062034B9A60704700BF8D
:100DEC00001002400000FFF800ED00E0002103E0DD
:100DFC000B4B5B58435004310A480B4B42189A4238
:100E0C00F6D30A4A02E0002342F8043B084B9A420C
:100E1C00F9D3FFF7C5FF00F015F8FFF7D7FE7047C1
:100E2C00A0170008000000207000002070000020B7
:100E3C00E4000020FEE70000014B1868704700BF7B
:100E4C000C00002070B500250C4E0D4CA41BA410FA
:100E5C00A54209D100F05CFC00250A4E0A4CA41BEB
:100E6C00A410A54205D170BD56F825309847013520
:100E7C00EEE756F8253098470135F2E79817000849
:100E8C0098170008981700089C170008034602449E
:100E9C00934200D1704703F8011BF9E70EB44FF4ED
:100EAC00027100B59CB0ADF814106FF000410491C4
:100EBC0007914FF6FF711DAB02900690084853F84E
:100ECC00042BADF81610006802A9019300F074F819
:100EDC000022029B1A701CB05DF804EB03B0704743
:100EEC000C000020024610B513461C780132002C71
:100EFC00FAD1013B11F8012B03F8012F002AF9D18B
:100F0C0010BD2DE9F0478E6882469E420C469146F4
:100F1C00984635D88A8912F4906F31D0022325680F
:100F2C0009696F1A656905EB450595FBF3F508F141
:100F3C0001033B449D4238BF1D46530531D529461C
:100F4C0000F046FB064650B90C23CAF80030A389C2
:100F5C004FF0FF3043F04003A381BDE8F0873A46E1
:100F6C00216900F0C3FAA38923F4906343F0800352
:100F7C00A38126613E44266046466561ED1BA56053
:100F8C00464528BF464649463246206800F0B9FA25
:100F9C00A36800209B1BA36023681E442660BDE849
:100FAC00F0872A4600F072FB06460028E1D1216941
:100FBC00504600F0C1FAC7E72DE9F04F9DB00393FE
:100FCC008B8980461C060D4616460FD50B696BB9EE
:100FDC00402100F0FDFA2860286128B90C23C8F8DC
:100FEC0000304FF0FF30C4E040236B6100230993C5
:100FFC0020238DF8293030234FF0010B8DF82A3047
:10100C0037463C4614F8013B002B3CD1B7EB060AA3
:10101C000BD05346324629464046FFF772FF01304B
:10102C0000F0A280099B534409933B78002B00F0FD
:10103C009B8000234FF0FF32049307930592069395
:10104C008DF853301A9305222178504800F040FA5D
:10105C00671C049BD8B9D90644BF20228DF85320B5
:10106C001A0744BF2B228DF8532022782A2A16D037
:10107C0000210A20079A27463B780134303B092B84
:10108C0050D9C9B111E0252BC0D02746B9E73F4A4A
:10109C003C46801A0BFA00F018430490D3E7039AED
:1010AC00111D12680391002A01DB079204E05242E1
:1010BC0043F00203079204933B782E2B0DD17B78DF
:1010CC00791C2A2B32D1039B02371A1D1B68039201
:1010DC00002BB8BF4FF0FF3305932D4C032239780A
:1010EC00204600F0F5F938B14023001B03FA00F05C
:1010FC00049B0137034304933978062225487E1C50
:10110C008DF8281000F0E4F9002835D0224BFBB9FB
:10111C00039B073323F0070308330393099B4B44CA
:10112C0009936DE700FB02320121A4E700230A2496
:10113C00184605930F463A780131303A092A03D9FB
:10114C00002BCAD00590C8E704FB00200123F1E76F
:10115C0003AB00932A46114B04A94046AFF3008021
:10116C00B0F1FF3F8146D9D1AB895B063FF539AF72
:10117C0009981DB0BDE8F08F03AB00932A46074BCE
:10118C0004A9404600F084F8EAE700BF63170008A2
:10119C00691700086D170008000000000F0F000809
:1011AC002DE9F04791461F468A680B690646934223
:1011BC00B8BF1346C9F8003091F843200C46DDF84F
:1011CC00208012B10133C9F800302368990642BF60
:1011DC00D9F800300233C9F80030256815F006053F
:1011EC0007D104F1190AE368D9F800209B1A9D4233
:1011FC002ADB94F843302268003318BF012392068F
:10120C002FD404F1430239463046C047013022D076
:10121C002368E56803F00603042B18BF0025D9F8F2
:10122C0000204FF0000908BFAD1AA368226908BF5F
:10123C0025EAE5759342C4BF9B1AED181A344D4547
:10124C001BD10020BDE8F0870123524639463046B9
:10125C00C047013003D14FF0FF30BDE8F0870135B6
:10126C00C1E73020E11881F843005A1C94F845106E
:10127C002244023382F84310C3E701232246394645
:10128C003046C0470130E6D009F10109D7E700002C
:10129C002DE9F04317460A7E85B06E2A984606461D
:1012AC000C460C9B01F1430E00F0BC801AD8632A4B
:1012BC002ED00AD8002A00F0C880582A00F08A8064
:1012CC0004F1420584F842202AE0642A01D0692AFC
:1012DC00F6D121681A6811F0800F23D0111D196006
:1012EC00136827E0732A00F0B48008D86F2A2AD03C
:1012FC00702AE5D10A6842F020020A6003E0752AE0
:10130C0021D0782ADCD178226F4984F8452064E01A
:10131C001A6801F14205111D1960136884F84230F6
:10132C000123A3E011F0400F02F104011960D7D0A2
:10133C00B2F90030002B03DA2D225B4284F84320F3
:10134C0062490A2217E02068196810F0800F03D058
:10135C00081D18600B6806E010F0400F01F1040046
:10136C001860F7D00B886F2A14BF0A22082257493D
:10137C00002084F843006568002DA560C0F29C80B5
:10138C00206820F004002060002B3FD1002D40F09D
:10139C0095807546082A0BD12368DA0708D523698E
:1013AC0062689A42DEBF302305F8013C05F1FF3537
:1013BC00AEEB05032361CDF800803B4603AA214622
:1013CC003046FFF7EDFE013055D14FF0FF3005B040
:1013DC00BDE8F08381F845203C492268186812F07A
:1013EC00800F00F104051D6001D0036802E0550672
:1013FC00FBD50388D00744BF42F0200222601BB902
:10140C00226822F0200222601022B1E77546B3FB5D
:10141C00F2F002FB1033CB5C05F8013D03460028CB
:10142C00F5D1B7E708681A6810F0800F496904D045
:10143C00101D18601368196007E010F0400F02F1DE
:10144C00040018601368F6D01980002375462361D8
:10145C00B1E71A68111D19601568002162682846E9
:10146C0000F036F808B1401B60606368236100230C
:10147C0084F843309FE723692A4639463046C047F3
:10148C000130A2D023689B0707D5002504F1190968
:10149C00E368039A9B1A9D4205DBE068039B984224
:1014AC00B8BF184693E701234A4639463046C04731
:1014BC0001308AD00135EBE7002BA7D10B7804F172
:1014CC00420584F8423065E7851700087417000858
:1014DC0010B5C9B202449042034601D1002010BDA0
:1014EC001C7801308C42F6D1184610BD10B5431E45
:1014FC000A44914200D110BD11F8014B03F8014F81
:10150C00F7E7884210B501EB020303D8421E99425B
:10151C000CD110BD9842F9D28118D21AD34200D105
:10152C0010BD13F8014D01F8014DF7E711F8014B0F
:10153C0002F8014FEBE7000038B50546002943D00F
:10154C0051F8043C0C1F002BB8BFE41800F0D4F881
:10155C001E4A1368104633B9636014602846BDE810
:10156C00384000F0CAB8A3420BD9216862189342E4
:10157C0001BF1A685B685218226063600460EDE773
:10158C0013465A680AB1A242FAD919685818A042EF
:10159C000BD120680144581882421960DED11068C2
:1015AC005268014419605A60D8E702D90C232B60A9
:1015BC00D4E7206821188A4201BF116852680918C3
:1015CC00216062605C60C9E738BD00BF94000020F8
:1015DC0070B5CD1C25F0030508350C2D38BF0C2536
:1015EC00002D064601DBA94203D90C2333600020F1
:1015FC0070BD00F081F8234A1468214691B9224C41
:10160C0023681BB9304600F067F820602946304645
:10161C0000F062F8431C26D10C233046336000F0F6
:10162C006CF8E4E70B685B1B1AD40B2B0FD90B601F
:10163C00CC18CD50304600F060F804F10B00231D9F
:10164C0020F00700C31A1BD05A42E25070BD8C42E6
:10165C000BBF63684B681360636018BF0C46E9E707
:10166C000C464968CAE7C41C24F00304A04205D008
:10167C00211A304600F030F80130CDD02560D9E782
:10168C0070BD00BF9400002098000020F8B50746FC
:10169C0014460E4621B91146BDE8F840FFF798BF35
:1016AC0022B9FFF749FF25462846F8BD00F026F879
:1016BC0084420FD921463846FFF78AFF0546002899
:1016CC00F2D031462246FFF711FF31463846FFF77C
:1016DC0033FFE9E73546E7E738B50023054C054607
:1016EC0008462360FFF742FB431C02D1236803B179
:1016FC002B6038BDE00000207047704751F8040C97
:10170C000028A0F10400BCBF0B58C01870470000A3
:10171C00F8B500BFF8BC08BC9E467047F8B500BFD2
:08172C00F8BC08BC9E467047A2
:1017340002030405060708090A0B0C0D0E0F10100E
:101744000D0A0000256400000000000000000001F4
:101754000203040607080900000000010203042331
:101764002D302B2000686C4C0065666745464700A9
:1017740030313233343536373839414243444546C3
:101784000030313233343536373839616263646559
:0417940066000000EB
:041798003101000813
:04179C000D01000833
:1017A00001000000100000000024F40010000020E0
:1017B0000000000000000000000000000000000029
:1017C0000000000000000000000000000000000019
:1017D0000000000000000000000000000000000009
:1017E00000000000000000000000000000000000F9
:1017F00000000000000000000000000000000000E9
:1018000000000000000000000000000000000000D8
:0400000508000DF9E9
:00000001FF
